:05023800C100011500EA
:100102001201E8E4F508F509B2A17F647E0012004D
:10011200030509E50970020508C39406E508648031
:10012200948040E4C2A13000FDC2AC750F0075108E
:100132000075110B7B007A00790A1200B2AF0A1225
:0D0142000230AF0B120230C200D2AC80D9E7
:030023000201FED9
:0401FE00C0E0C0D0CD
:0C020200309809C298E599B4AA02D20015
:05020E00D0D0D0E03269
:10000300EF1FAA0670011E4A6013E4FCFDC3ED94C2
:0D0013007DEC940050EA0DBD00010C80F062
:0100200022BD
:1001E800758920758DF3758BF3759850758780D256
:0601F800ACD2AFD28E2252
:10014F008B128A138914AB12AA13A91412017E60A1
:10015F0014F5993099FDC29974012514F514E435FD
:0F016F0013F51380E1751200751300751400224B
:080230008F993099FDC299225B
:0B022500EF1FAC0670011E4C70F622AB
:10021300C2A07F3C7E00120225D2A07F327E000264
:020223000225B2
:1001A900E4FB7D08C2A07F017E00120225EBC31388
:1001B900FBD2A030A0034303807F077E00120225F3
:0401C900DDE2AF03C1
:0101CD00220F
:0201CE00AD077B
:1001D0007B08C2A0ED1392A07F077E00120225D2F9
:0701E000A0EDC313FDDBEBF2
:0101E70022F5
:0600B2008B0C8A0D890E83
:1000B8009001F41202137FCC1201CE7F441201CEBC
:1000C80020A010E5824583600AE582158270F1154B
:1000D8008380ED1202137FCC1201CE7FBE1201CEB7
:1000E8001201A9AB0FAA10A911EF1201971201A9C9
:0A00F800AB0CAA0DA90EEF02019750
:03000000020026D5
:0C002600787FE4F6D8FD75812002006DA3
:10017E00BB010689828A83E0225002E722BBFE027F
:09018E00E32289828A83E49322B2
:10019700BB010689828A83F0225002F722BBFE0147
:0201A700F32241
:10003200020102E493A3F8E493A34003F68001F2E1
:1000420008DFF48029E493A3F85407240CC8C333CF
:10005200C4540F4420C8834004F456800146F6DF9E
:10006200E4800B0102040810204080900238E47EF4
:10007200019360BCA3FF543F30E509541FFEE49393
:10008200A360010ECF54C025E060A840B8E493A35A
:10009200FAE493A3F8E493A3C8C582C8CAC583CA85
:1000A200F0A3C8C582C8CAC583CADFE9DEE780BE3D
:01023D0000C0
:00000001FF
